:100000000C9461000C947E000C947E000C947E0095
:100010000C947E000C947E000C947E000C94BA0329
:100020000C947E000C947E000C947E000C947E0058
:100030000C947E000C947E000C947E000C947E0048
:100040000C942B010C947E000C947E000C947E008A
:100050000C947E000C947E000C947E000C947E0028
:100060000C947E000C947E0000000007000201004A
:100070000003040600000000000000000102040864
:100080001020408001020408102001020408102002
:10009000040404040404040402020202020203032E
:1000A00003030303000000002300260029000000D2
:1000B0000000250028002B0000000000240027007D
:1000C0002A0011241FBECFEFD8E0DEBFCDBF11E064
:1000D000A0E0B1E0E8EFF7E002C005900D92A0309B
:1000E000B107D9F711E0A0E0B1E001C01D92AB303B
:1000F000B107E1F70E94E7000C94E3030C940000C1
:100100000F931F93FC017183608353834283358374
:100110002483178306831F910F9108950F931F93D4
:10012000CF93DF93EC018B0188810E94CA01B80153
:100130008A81DF91CF911F910F910C94CA010F9387
:100140001F93CF93DF93EC018B018C810E94CA0136
:10015000B8018E81DF91CF911F910F910C94CA014C
:100160000F931F93CF93DF93EC018B010E948E00BE
:10017000B801CE01DF91CF911F910F910C949F0098
:100180009C0188E0FB01D90101900D928A95E1F76D
:1001900092E1FA01D901189601900D929A95E1F732
:1001A00008950C94B0000C948E00CF93DF93EB0174
:1001B00008960E94890369E370E00E94E60381E0EB
:1001C0006C177D070CF080E0DF91CF910895CF93FD
:1001D000DF93CDB7DEB7E4970FB6F894DEBF0FBE5E
:1001E000CDBF28EC30E04BE06AE0CE014B960E9498
:1001F000BE0209E010E028E030E047E050E066E0B1
:1002000070E0CE018D960E948000AE01455E5F4F8A
:10021000BE01635D7F4FCE0101960E94C00064E184
:1002200070E0CE0101960E94D500882339F062E388
:1002300070E0CE0101960E94D30006C06AEF70E024
:10024000CE0101960E94D10064E670E080E090E06B
:100250000E949A01E4CF1F920F920FB60F921124C1
:100260002F933F938F939F93AF93BF9380910101FF
:1002700090910201A0910301B0910401309100011D
:1002800023E0230F2D3720F40196A11DB11D05C0D9
:1002900026E8230F0296A11DB11D20930001809333
:1002A000010190930201A0930301B0930401809196
:1002B000050190910601A0910701B09108010196F6
:1002C000A11DB11D8093050190930601A093070124
:1002D000B0930801BF91AF919F918F913F912F9162
:1002E0000F900FBE0F901F9018953FB7F894809114
:1002F000050190910601A0910701B091080126B572
:10030000A89B05C02F3F19F00196A11DB11D3FBF4D
:10031000BA2FA92F982F8827820F911DA11DB11DDB
:10032000BC01CD0142E0660F771F881F991F4A95D7
:10033000D1F70895CF92DF92EF92FF92CF93DF93A0
:100340006B017C010E947501EB01C114D104E10431
:10035000F10479F00E9475016C1B7D0B683E7340BF
:10036000A0F381E0C81AD108E108F108C851DC4FB8
:10037000ECCFDF91CF91FF90EF90DF90CF90089579
:10038000019739F0880F991F880F991F02970197DD
:10039000F1F708951F93CF93DF93182FEB0161E0DE
:1003A0000E945202209711F460E004C0CF3FD105B3
:1003B00039F461E0812FDF91CF911F910C948E026F
:1003C000E12FF0E0E859FF4FE491E330F9F048F411
:1003D000E130B9F0E230A1F584B5806284BDC8BDDA
:1003E00034C0E630E9F0E73019F1E43049F58091A6
:1003F0008000806280938000D0938B00C0938A003D
:1004000024C084B5806884BDC7BD1FC080918000B2
:10041000806880938000D0938900C093880015C0C5
:100420008091B00080688093B000C093B3000DC08D
:100430008091B00080628093B000C093B40005C08A
:10044000C038D1050CF0B5CFAFCFDF91CF911F9160
:100450000895833081F028F4813099F08230A1F042
:1004600008958630A9F08730B9F08430D1F48091B6
:1004700080008F7D03C0809180008F778093800003
:10048000089584B58F7702C084B58F7D84BD0895AB
:100490008091B0008F7703C08091B0008F7D8093F2
:1004A000B0000895CF93DF9390E0FC01E458FF4F34
:1004B0002491FC01E057FF4F8491882361F190E083
:1004C000880F991FFC01E854FF4FC591D491FC019E
:1004D000E255FF4FA591B491611109C09FB7F894FF
:1004E0008881209582238883EC912E230BC0623073
:1004F00061F49FB7F8943881822F80958323888395
:10050000EC912E2B2C939FBF06C08FB7F894E881F7
:100510002E2B28838FBFDF91CF9108951F93CF9308
:10052000DF93282F30E0F901E859FF4F8491F9015A
:10053000E458FF4FD491F901E057FF4FC491CC2309
:10054000C9F0162F81110E942902EC2FF0E0EE0F66
:10055000FF1FE255FF4FA591B4918FB7F894111189
:1005600005C09C91ED2FE095E92302C0EC91ED2BA5
:10057000EC938FBFDF91CF911F910895DC0170E064
:10058000FB01E458FF4FE4911496EC93149750E06C
:10059000FA01E458FF4FE4911596EC9315976057D4
:1005A0007F4FFB018491E82FF0E0EE0FFF1FE25533
:1005B000FF4F8591949117969C938E931697FA010D
:1005C000E057FF4F449150E0440F551F4C555F4F8B
:1005D000FA01859194911B969C938E931A97FB0137
:1005E0006491E62FF0E0EE0FFF1FE854FF4F859176
:1005F000949119969C938E931897C901253FF1E029
:100600003F0714F084EF91E049E3489F9001499F30
:10061000300D1124C9014C961D969C938E931C9706
:100620000895CF92DF92EF92FF921F93CF93DF93C3
:10063000EC01E885F98590818C81892B8083EE819E
:10064000FF8190818C8180958923808384E090E074
:100650000E94C001EE81FF8190818C81892B808373
:100660008AE090E00E94C001EE81FF8190818C8140
:10067000809589238083E885F98590818C81809598
:10068000892380830E947501DC01CB01805B994B3B
:10069000AF4FBF4F8E879F87A88BB98BEA85FB85AD
:1006A00090818D818923B9F00E947501CE84DF8409
:1006B000E888F988C616D706E806F90678F70BC069
:1006C0000E947501CE84DF84E888F988C616D706B3
:1006D000E806F906A8F0EA85FB8510818D811823CC
:1006E00079F30E9475012C853D85DC01CB01820FD9
:1006F000931FA11DB11D8E879F87A88BB98B11E019
:10070000812FDF91CF911F91FF90EF90DF90CF90DD
:1007100008950F931F93CF93DF93EC010E94110371
:1007200081110EC080E090E020C00E9475010E850E
:100730001F8528893989061717072807390790F375
:10074000EA85FB8590818D81892379F70E94750167
:100750002C853D85A901455051092E853F85FA011B
:10076000E21BF30BCF01860F971FDF91CF911F91F3
:100770000F9108951F920F920FB60F9211242F938D
:100780003F934F935F936F937F938F939F93AF9319
:10079000BF93EF93FF93E0910901F0910A01309725
:1007A00009F00995FF91EF91BF91AF919F918F91C2
:1007B0007F916F915F914F913F912F910F900FBE5D
:1007C0000F901F901895F8940C94FA03AA1BBB1B6A
:1007D00051E107C0AA1FBB1FA617B70710F0A61B41
:1007E000B70B881F991F5A95A9F780959095BC0162
:0807F000CD010895F894FFCF3C
:00000001FF
